:020000040800F2
:1000000000000320090300085903000859030008F1
:1000100059030008590300085903000800000000B4
:10002000000000000000000000000000590300086C
:100030005903000800000000590300085903000894
:100040005903000859030008590300085903000820
:100050005903000859030008590300085903000810
:100060005903000859030008590300085903000800
:1000700059030008590300085903000859030008F0
:1000800059030008590300085903000859030008E0
:1000900059030008590300085903000859030008D0
:1000A00059030008590300085903000859030008C0
:1000B00059030008590300085903000859030008B0
:1000C00059030008590300085903000859030008A0
:1000D0005903000859030008590300085903000890
:1000E0005903000859030008590300085903000880
:1000F0005903000859030008590300085903000870
:10010000590300085903000859030008590300085F
:10011000590300085903000859030008590300084F
:10012000590300085903000859030008590300083F
:10013000590300085903000859030008590300082F
:10014000590300085903000859030008590300081F
:10015000590300085903000859030008590300080F
:1001600059030008590300085903000859030008FF
:100170005903000859030008590300080000000053
:1001800059030008590300085903000859030008DF
:1001900059030008590300085903000859030008CF
:0C01A00059030008590300085903000827
:1001AC0010B5054C237833B9044B13B10448AFF3A5
:1001BC0000800123237010BD00000020000000000F
:1001CC00A403000808B5034B1BB103490348AFF364
:1001DC00008008BD0000000004000020A4030008FB
:1001EC00034AD2F8883043F47003C2F88830704761
:1001FC0000ED00E008B500F059F800222EE02A4985
:10020C00D1F8183443F08043C1F8183434E026494F
:10021C00D1F8183443F40000C1F81804BAB9D1F875
:10022C00101811F4806F0CD040F001031E49C1F876
:10023C0018341D49D1F8183843F08063C1F81838C8
:10024C002EE043F401031849C1F81834F1E71649BC
:10025C00D1F8183843F48063C1F81838124BD3F82E
:10026C00103813F4807FCAD00F4AD2F8183443F4F4
:10027C008043C2F8183400220B4BD3F8103813F417
:10028C00007FC4D0084BD3F8182442F08002C3F886
:10029C001824D3F8002842F48012C3F80028012255
:1002AC00002ADBD0D3E700BF00000240104AD2F88E
:1002BC00303843F00603C2F830380E4BD3F8002424
:1002CC000D490A43C3F80024D3F808240A43C3F8A1
:1002DC000824D3F8182442F0814242F48032C3F847
:1002EC001824D3F8082842F48012C3F80828704761
:1002FC00003002400000024001400010DFF834D012
:10030C000D480E490E4A002302E0D458C450043361
:10031C00C4188C42F9D30B4A0B4C002301E0136038
:10032C000432A242FBD3FFF75BFF00F011F8FFF79A
:10033C0061FF704700000320000000200000002037
:10034C00C4030008000000201C000020FEE7000091
:10035C0070B50D4D0D4C641BA4100026A64209D19E
:10036C000B4D0C4C00F018F8641BA4100026A64290
:10037C0005D170BD55F8043B98470136EEE755F8AA
:10038C00043B98470136F2E7BC030008BC030008A5
:10039C00BC030008C0030008F8B500BFF8BC08BCDB
:1003AC009E467047F8B500BFF8BC08BC9E46704727
:0403BC00D101000863
:0403C000AD01000883
:0400000508000309E3
:00000001FF
