:020000040800F2
:1000000000000320110300086103000861030008D9
:10001000610300086103000861030008000000009C
:100020000000000000000000000000006103000864
:10003000610300080000000061030008610300087C
:100040006103000861030008610300086103000800
:1000500061030008610300086103000861030008F0
:1000600061030008610300086103000861030008E0
:1000700061030008610300086103000861030008D0
:1000800061030008610300086103000861030008C0
:1000900061030008610300086103000861030008B0
:1000A00061030008610300086103000861030008A0
:1000B0006103000861030008610300086103000890
:1000C0006103000861030008610300086103000880
:1000D0006103000861030008610300086103000870
:1000E0006103000861030008610300086103000860
:1000F0006103000861030008610300086103000850
:10010000610300086103000861030008610300083F
:10011000610300086103000861030008610300082F
:10012000610300086103000861030008610300081F
:10013000610300086103000861030008610300080F
:1001400061030008610300086103000861030008FF
:1001500061030008610300086103000861030008EF
:1001600061030008610300086103000861030008DF
:10017000610300086103000861030008000000003B
:1001800061030008610300086103000861030008BF
:1001900061030008610300086103000861030008AF
:0C01A0006103000861030008610300080F
:1001AC0010B5054C237833B9044B13B10448AFF3A5
:1001BC0000800123237010BD00000020000000000F
:1001CC00AC03000808B5034B1BB103490348AFF35C
:1001DC00008008BD0000000004000020AC030008F3
:1001EC00034AD2F8883043F47003C2F88830704761
:1001FC0000ED00E008B500F057F8002227E029498F
:10020C00D1F8183443F08043C1F8183433E0254951
:10021C00D1F8183443F40000C1F8180482B9D1F8AD
:10022C00101811F4806F05D040F001031D49C1F87E
:10023C00183434E043F401031A49C1F818342EE0A1
:10024C001849D1F8183443F48063C1F81834154BAD
:10025C00D3F8103813F4807FD1D0124AD2F8183466
:10026C0043F48041C2F8181443F0806343F4804394
:10027C00C2F8183400220B4BD3F8103813F4007F5B
:10028C00C5D0084BD3F8182442F08002C3F81824C8
:10029C00D3F8002842F48012C3F800280122002A67
:1002AC00D5D0CDE700000240134AD2F8303843F0E5
:1002BC000603C2F83038114BD3F8002410490A4316
:1002CC00C3F80024D3F8042442F48142C3F8042474
:1002DC00D3F808240A43C3F80824D3F8182442F0AE
:1002EC00814242F48032C3F81824D3F8082842F42F
:1002FC008012C3F80828704700300240000002400A
:10030C0001400010DFF834D00D480E490E4A00238E
:10031C0002E0D458C4500433C4188C42F9D30B4AAD
:10032C000B4C002301E013600432A242FBD3FFF715
:10033C0057FF00F011F8FFF75DFF70470000032036
:10034C000000002000000020CC030008000000206A
:10035C001C000020FEE7000070B50D4D0D4C641B19
:10036C00A4100026A64209D10B4D0C4C00F018F835
:10037C00641BA4100026A64205D170BD55F8043BA1
:10038C0098470136EEE755F8043B98470136F2E7FB
:10039C00C4030008C4030008C4030008C803000811
:1003AC00F8B500BFF8BC08BC9E467047F8B500BF56
:0803BC00F8BC08BC9E46704726
:0403C400D10100085B
:0403C800AD0100087B
:0400000508000311DB
:00000001FF
